{
  "contractName": "Course_tracker",
  "abi": [
    {
      "anonymous": false,
      "inputs": [
        {
          "indexed": true,
          "internalType": "uint256",
          "name": "studentId",
          "type": "uint256"
        },
        {
          "indexed": false,
          "internalType": "string",
          "name": "semesterName",
          "type": "string"
        },
        {
          "indexed": false,
          "internalType": "uint256",
          "name": "cgpa",
          "type": "uint256"
        }
      ],
      "name": "CGPARetrievedEvent",
      "type": "event"
    },
    {
      "anonymous": false,
      "inputs": [
        {
          "indexed": true,
          "internalType": "uint256",
          "name": "studentId",
          "type": "uint256"
        },
        {
          "indexed": false,
          "internalType": "string",
          "name": "semesterName",
          "type": "string"
        },
        {
          "indexed": false,
          "internalType": "string",
          "name": "courseName",
          "type": "string"
        },
        {
          "indexed": false,
          "internalType": "uint256",
          "name": "gpa",
          "type": "uint256"
        }
      ],
      "name": "CourseAddedEvent",
      "type": "event"
    },
    {
      "anonymous": false,
      "inputs": [
        {
          "indexed": true,
          "internalType": "uint256",
          "name": "studentId",
          "type": "uint256"
        },
        {
          "indexed": false,
          "internalType": "string",
          "name": "semesterName",
          "type": "string"
        },
        {
          "components": [
            {
              "internalType": "string",
              "name": "courseName",
              "type": "string"
            },
            {
              "internalType": "uint256",
              "name": "gpa",
              "type": "uint256"
            }
          ],
          "indexed": false,
          "internalType": "struct Course_tracker.Course[]",
          "name": "courses",
          "type": "tuple[]"
        }
      ],
      "name": "CoursesRetrievedEvent",
      "type": "event"
    },
    {
      "inputs": [],
      "name": "coursesCount",
      "outputs": [
        {
          "internalType": "uint256",
          "name": "",
          "type": "uint256"
        }
      ],
      "stateMutability": "view",
      "type": "function",
      "constant": true
    },
    {
      "inputs": [
        {
          "internalType": "uint256",
          "name": "",
          "type": "uint256"
        }
      ],
      "name": "students",
      "outputs": [
        {
          "internalType": "uint256",
          "name": "studentId",
          "type": "uint256"
        }
      ],
      "stateMutability": "view",
      "type": "function",
      "constant": true
    },
    {
      "inputs": [
        {
          "internalType": "uint256",
          "name": "_studentId",
          "type": "uint256"
        },
        {
          "internalType": "string",
          "name": "_semesterName",
          "type": "string"
        },
        {
          "internalType": "string",
          "name": "_courseName",
          "type": "string"
        },
        {
          "internalType": "uint256",
          "name": "_gpa",
          "type": "uint256"
        }
      ],
      "name": "addCourse",
      "outputs": [],
      "stateMutability": "nonpayable",
      "type": "function"
    },
    {
      "inputs": [
        {
          "internalType": "uint256",
          "name": "_studentId",
          "type": "uint256"
        },
        {
          "internalType": "string",
          "name": "_semesterName",
          "type": "string"
        }
      ],
      "name": "getCGPA",
      "outputs": [
        {
          "internalType": "uint256",
          "name": "",
          "type": "uint256"
        }
      ],
      "stateMutability": "nonpayable",
      "type": "function"
    },
    {
      "inputs": [
        {
          "internalType": "uint256",
          "name": "_studentId",
          "type": "uint256"
        },
        {
          "internalType": "string",
          "name": "_semesterName",
          "type": "string"
        }
      ],
      "name": "getCourses",
      "outputs": [
        {
          "components": [
            {
              "internalType": "string",
              "name": "courseName",
              "type": "string"
            },
            {
              "internalType": "uint256",
              "name": "gpa",
              "type": "uint256"
            }
          ],
          "internalType": "struct Course_tracker.Course[]",
          "name": "",
          "type": "tuple[]"
        }
      ],
      "stateMutability": "nonpayable",
      "type": "function"
    }
  ],
  "bytecode": "0x608060405234801561001057600080fd5b50611000806100206000396000f3fe608060405234801561001057600080fd5b50600436106100575760003560e01c8063042799881461005c57806306ead22e1461007a5780630ebb8536146100aa5780635784a16d146100da57806376186b03146100f6575b600080fd5b610064610126565b60405161007191906105f1565b60405180910390f35b610094600480360381019061008f919061064c565b61012c565b6040516100a191906105f1565b60405180910390f35b6100c460048036038101906100bf91906107bf565b61014a565b6040516100d191906105f1565b60405180910390f35b6100f460048036038101906100ef919061081b565b61031e565b005b610110600480360381019061010b91906107bf565b610468565b60405161011d9190610a47565b60405180910390f35b60015481565b60006020528060005260406000206000915090508060000154905081565b600080600090506000806000868152602001908152602001600020600101846040516101769190610aa5565b9081526020016040518091039020600101805480602002602001604051908101604052809291908181526020016000905b8282101561027557838290600052602060002090600202016040518060400160405290816000820180546101da90610aeb565b80601f016020809104026020016040519081016040528092919081815260200182805461020690610aeb565b80156102535780601f1061022857610100808354040283529160200191610253565b820191906000526020600020905b81548152906001019060200180831161023657829003601f168201915b50505050508152602001600182015481525050815260200190600101906101a7565b50505050905060005b81518110156102c65781818151811061029a57610299610b1c565b5b602002602001015160200151836102b19190610b7a565b925080806102be90610bae565b91505061027e565b5060008151836102d69190610c25565b9050857fe5b6b6ba9f78002bb9a3602a5b9aacc8511a7d8f3cd3ae60e750fda54217e800868360405161030a929190610ca0565b60405180910390a280935050505092915050565b8360008086815260200190815260200160002060000181905550826000808681526020019081526020016000206001018460405161035c9190610aa5565b908152602001604051809103902060000190816103799190610e7c565b506000808581526020019081526020016000206001018360405161039d9190610aa5565b9081526020016040518091039020600101604051806040016040528084815260200183815250908060018154018082558091505060019003906000526020600020906002020160009091909190915060008201518160000190816104019190610e7c565b506020820151816001015550506001600081548092919061042190610bae565b9190505550837f4deea335bebebba84b60040a99481920c138a0604986297c17c6b8c9444152ed84848460405161045a93929190610f4e565b60405180910390a250505050565b606060008060008581526020019081526020016000206001018360405161048f9190610aa5565b9081526020016040518091039020600101805480602002602001604051908101604052809291908181526020016000905b8282101561058e57838290600052602060002090600202016040518060400160405290816000820180546104f390610aeb565b80601f016020809104026020016040519081016040528092919081815260200182805461051f90610aeb565b801561056c5780601f106105415761010080835404028352916020019161056c565b820191906000526020600020905b81548152906001019060200180831161054f57829003601f168201915b50505050508152602001600182015481525050815260200190600101906104c0565b505050509050837fbd9e58303429e7f7af2aa20d211995b2346d5ece5576da04e411659e5000510184836040516105c6929190610f93565b60405180910390a28091505092915050565b6000819050919050565b6105eb816105d8565b82525050565b600060208201905061060660008301846105e2565b92915050565b6000604051905090565b600080fd5b600080fd5b610629816105d8565b811461063457600080fd5b50565b60008135905061064681610620565b92915050565b60006020828403121561066257610661610616565b5b600061067084828501610637565b91505092915050565b600080fd5b600080fd5b6000601f19601f8301169050919050565b7f4e487b7100000000000000000000000000000000000000000000000000000000600052604160045260246000fd5b6106cc82610683565b810181811067ffffffffffffffff821117156106eb576106ea610694565b5b80604052505050565b60006106fe61060c565b905061070a82826106c3565b919050565b600067ffffffffffffffff82111561072a57610729610694565b5b61073382610683565b9050602081019050919050565b82818337600083830152505050565b600061076261075d8461070f565b6106f4565b90508281526020810184848401111561077e5761077d61067e565b5b610789848285610740565b509392505050565b600082601f8301126107a6576107a5610679565b5b81356107b684826020860161074f565b91505092915050565b600080604083850312156107d6576107d5610616565b5b60006107e485828601610637565b925050602083013567ffffffffffffffff8111156108055761080461061b565b5b61081185828601610791565b9150509250929050565b6000806000806080858703121561083557610834610616565b5b600061084387828801610637565b945050602085013567ffffffffffffffff8111156108645761086361061b565b5b61087087828801610791565b935050604085013567ffffffffffffffff8111156108915761089061061b565b5b61089d87828801610791565b92505060606108ae87828801610637565b91505092959194509250565b600081519050919050565b600082825260208201905092915050565b6000819050602082019050919050565b600081519050919050565b600082825260208201905092915050565b60005b83811015610920578082015181840152602081019050610905565b60008484015250505050565b6000610937826108e6565b61094181856108f1565b9350610951818560208601610902565b61095a81610683565b840191505092915050565b61096e816105d8565b82525050565b60006040830160008301518482036000860152610991828261092c565b91505060208301516109a66020860182610965565b508091505092915050565b60006109bd8383610974565b905092915050565b6000602082019050919050565b60006109dd826108ba565b6109e781856108c5565b9350836020820285016109f9856108d6565b8060005b85811015610a355784840389528151610a1685826109b1565b9450610a21836109c5565b925060208a019950506001810190506109fd565b50829750879550505050505092915050565b60006020820190508181036000830152610a6181846109d2565b905092915050565b600081905092915050565b6000610a7f826108e6565b610a898185610a69565b9350610a99818560208601610902565b80840191505092915050565b6000610ab18284610a74565b915081905092915050565b7f4e487b7100000000000000000000000000000000000000000000000000000000600052602260045260246000fd5b60006002820490506001821680610b0357607f821691505b602082108103610b1657610b15610abc565b5b50919050565b7f4e487b7100000000000000000000000000000000000000000000000000000000600052603260045260246000fd5b7f4e487b7100000000000000000000000000000000000000000000000000000000600052601160045260246000fd5b6000610b85826105d8565b9150610b90836105d8565b9250828201905080821115610ba857610ba7610b4b565b5b92915050565b6000610bb9826105d8565b91507fffffffffffffffffffffffffffffffffffffffffffffffffffffffffffffffff8203610beb57610bea610b4b565b5b600182019050919050565b7f4e487b7100000000000000000000000000000000000000000000000000000000600052601260045260246000fd5b6000610c30826105d8565b9150610c3b836105d8565b925082610c4b57610c4a610bf6565b5b828204905092915050565b600082825260208201905092915050565b6000610c72826108e6565b610c7c8185610c56565b9350610c8c818560208601610902565b610c9581610683565b840191505092915050565b60006040820190508181036000830152610cba8185610c67565b9050610cc960208301846105e2565b9392505050565b60008190508160005260206000209050919050565b60006020601f8301049050919050565b600082821b905092915050565b600060088302610d327fffffffffffffffffffffffffffffffffffffffffffffffffffffffffffffffff82610cf5565b610d3c8683610cf5565b95508019841693508086168417925050509392505050565b6000819050919050565b6000610d79610d74610d6f846105d8565b610d54565b6105d8565b9050919050565b6000819050919050565b610d9383610d5e565b610da7610d9f82610d80565b848454610d02565b825550505050565b600090565b610dbc610daf565b610dc7818484610d8a565b505050565b5b81811015610deb57610de0600082610db4565b600181019050610dcd565b5050565b601f821115610e3057610e0181610cd0565b610e0a84610ce5565b81016020851015610e19578190505b610e2d610e2585610ce5565b830182610dcc565b50505b505050565b600082821c905092915050565b6000610e5360001984600802610e35565b1980831691505092915050565b6000610e6c8383610e42565b9150826002028217905092915050565b610e85826108e6565b67ffffffffffffffff811115610e9e57610e9d610694565b5b610ea88254610aeb565b610eb3828285610def565b600060209050601f831160018114610ee65760008415610ed4578287015190505b610ede8582610e60565b865550610f46565b601f198416610ef486610cd0565b60005b82811015610f1c57848901518255600182019150602085019450602081019050610ef7565b86831015610f395784890151610f35601f891682610e42565b8355505b6001600288020188555050505b505050505050565b60006060820190508181036000830152610f688186610c67565b90508181036020830152610f7c8185610c67565b9050610f8b60408301846105e2565b949350505050565b60006040820190508181036000830152610fad8185610c67565b90508181036020830152610fc181846109d2565b9050939250505056fea264697066735822122086141d65144ffa4e7023f30d5bf43b27750bd9f354c8713e799a26ce31e2a7e564736f6c63430008100033",
  "immutableReferences": {},
  "source": "// SPDX-License-Identifier: GPL-3.0\npragma solidity >=0.7.0 <0.9.0;\n\n\ncontract Course_tracker {\n\n    // model a course\n   struct Course {\n        string courseName;\n        uint gpa;\n    }\n\n    // model a semester\n    struct Semester {\n        string semesterName;\n        Course[] courses;\n    }\n\n    //model a student\n    struct Student {\n        uint studentId;\n        mapping(string => Semester) semesters;\n    }\n\n    // read/write students\n    mapping(uint => Student) public students;\n\n    // store courses count\n    uint public coursesCount;\n\n    // events\n    event CourseAddedEvent(uint indexed studentId, string semesterName, string courseName, uint gpa);\n    event CoursesRetrievedEvent(uint indexed studentId, string semesterName, Course[] courses);\n    event CGPARetrievedEvent(uint indexed studentId, string semesterName, uint cgpa);\n\n    // Constructor\n    // constructor() {\n    //     addCourse(20101001, \"Spring2020\", \"CSE110\", 4);\n    //     addCourse(20101006, \"Spring2020\", \"ENG101\", 4);\n    // }\n\n    // add course to semester of students\n    function addCourse(uint _studentId, string memory _semesterName, string memory _courseName, uint _gpa) public {\n        students[_studentId].studentId = _studentId;\n        students[_studentId].semesters[_semesterName].semesterName = _semesterName;\n        students[_studentId].semesters[_semesterName].courses.push(Course(_courseName, _gpa));\n\n        coursesCount++;\n        \n        emit CourseAddedEvent(_studentId, _semesterName, _courseName, _gpa);\n    }\n\n    function getCGPA(uint _studentId, string memory _semesterName) public returns (uint) {\n        uint totalGPA = 0;\n        Course[] memory courses = students[_studentId].semesters[_semesterName].courses;\n        for (uint i = 0; i < courses.length; i++) {\n            totalGPA += courses[i].gpa;\n        }\n        uint cgpa = totalGPA / courses.length;\n        \n        emit CGPARetrievedEvent(_studentId, _semesterName, cgpa);\n        \n        return cgpa;\n    }\n\n    function getCourses(uint _studentId, string memory _semesterName) public returns (Course[] memory) {\n        Course[] memory courses = students[_studentId].semesters[_semesterName].courses;\n        \n        emit CoursesRetrievedEvent(_studentId, _semesterName, courses);\n        \n        return courses;\n    }\n\n}",
  "sourcePath": "/home/rrr/MyWorks/eth_project/course_project/contracts/Course_tracker.sol",
  "compiler": {
    "name": "solc",
    "version": "0.8.16+commit.07a7930e.Emscripten.clang"
  },
  "schemaVersion": "3.4.13",
  "updatedAt": "2023-04-27T00:52:25.753Z",
  "networkType": "ethereum",
  "devdoc": {
    "kind": "dev",
    "methods": {},
    "version": 1
  },
  "userdoc": {
    "kind": "user",
    "methods": {},
    "version": 1
  }
}